{
	"_format": "hh-sol-artifact-1",
	"contractName": "Staker",
	"sourceName": "contracts/Staker.sol",
	"abi": [
		{
			"inputs": [
				{
					"internalType": "address",
					"name": "exampleExternalContractAddress",
					"type": "address"
				}
			],
			"stateMutability": "nonpayable",
			"type": "constructor"
		},
		{
			"anonymous": false,
			"inputs": [
				{
					"indexed": false,
					"internalType": "address",
					"name": "",
					"type": "address"
				},
				{
					"indexed": false,
					"internalType": "uint256",
					"name": "",
					"type": "uint256"
				}
			],
			"name": "Stake",
			"type": "event"
		},
		{
			"inputs": [
				{
					"internalType": "address",
					"name": "",
					"type": "address"
				}
			],
			"name": "balances",
			"outputs": [
				{
					"internalType": "uint256",
					"name": "",
					"type": "uint256"
				}
			],
			"stateMutability": "view",
			"type": "function"
		},
		{
			"inputs": [],
			"name": "deadline",
			"outputs": [
				{
					"internalType": "uint256",
					"name": "",
					"type": "uint256"
				}
			],
			"stateMutability": "view",
			"type": "function"
		},
		{
			"inputs": [],
			"name": "exampleExternalContract",
			"outputs": [
				{
					"internalType": "contract ExampleExternalContract",
					"name": "",
					"type": "address"
				}
			],
			"stateMutability": "view",
			"type": "function"
		},
		{
			"inputs": [],
			"name": "threshold",
			"outputs": [
				{
					"internalType": "uint256",
					"name": "",
					"type": "uint256"
				}
			],
			"stateMutability": "view",
			"type": "function"
		}
	],
	"bytecode": "0x6080604052601e4261001191906100c6565b60025534801561002057600080fd5b506040516104153803806104158339818101604052810190610042919061009d565b806000806101000a81548173ffffffffffffffffffffffffffffffffffffffff021916908373ffffffffffffffffffffffffffffffffffffffff1602179055505061019e565b60008151905061009781610187565b92915050565b6000602082840312156100af57600080fd5b60006100bd84828501610088565b91505092915050565b60006100d18261014e565b91506100dc8361014e565b9250827fffffffffffffffffffffffffffffffffffffffffffffffffffffffffffffffff0382111561011157610110610158565b5b828201905092915050565b60006101278261012e565b9050919050565b600073ffffffffffffffffffffffffffffffffffffffff82169050919050565b6000819050919050565b7f4e487b7100000000000000000000000000000000000000000000000000000000600052601160045260246000fd5b6101908161011c565b811461019b57600080fd5b50565b610268806101ad6000396000f3fe608060405234801561001057600080fd5b506004361061004c5760003560e01c806327e235e31461005157806329dcb0cf1461008157806342cde4e81461009f5780639f75f227146100bd575b600080fd5b61006b6004803603810190610066919061013e565b6100db565b60405161007891906101a0565b60405180910390f35b6100896100f3565b60405161009691906101a0565b60405180910390f35b6100a76100f9565b6040516100b491906101a0565b60405180910390f35b6100c5610105565b6040516100d29190610185565b60405180910390f35b60016020528060005260406000206000915090505481565b60025481565b670de0b6b3a764000081565b60008054906101000a900473ffffffffffffffffffffffffffffffffffffffff1681565b6000813590506101388161021b565b92915050565b60006020828403121561015057600080fd5b600061015e84828501610129565b91505092915050565b610170816101f7565b82525050565b61017f816101ed565b82525050565b600060208201905061019a6000830184610167565b92915050565b60006020820190506101b56000830184610176565b92915050565b60006101c6826101cd565b9050919050565b600073ffffffffffffffffffffffffffffffffffffffff82169050919050565b6000819050919050565b600061020282610209565b9050919050565b6000610214826101cd565b9050919050565b610224816101bb565b811461022f57600080fd5b5056fea26469706673582212206aa63211c3dc020e6c540919bd36ec1a1676a74c10f13b86112f52ec0d4c0c0864736f6c63430008040033",
	"linkReferences": {},
	"deployedLinkReferences": {}
}